{
  "contractName": "BaseLeague",
  "abi": [
    {
      "inputs": [
        {
          "internalType": "address",
          "name": "_commish",
          "type": "address"
        },
        {
          "internalType": "uint256",
          "name": "_yahooLeagueId",
          "type": "uint256"
        },
        {
          "internalType": "uint256",
          "name": "_minBuyInWei",
          "type": "uint256"
        },
        {
          "internalType": "uint256",
          "name": "_maxTeams",
          "type": "uint256"
        }
      ],
      "stateMutability": "nonpayable",
      "type": "constructor"
    },
    {
      "anonymous": false,
      "inputs": [
        {
          "indexed": false,
          "internalType": "uint256",
          "name": "teamId",
          "type": "uint256"
        },
        {
          "indexed": false,
          "internalType": "uint256",
          "name": "amountWonInWei",
          "type": "uint256"
        },
        {
          "indexed": false,
          "internalType": "uint256",
          "name": "amountPaidInWei",
          "type": "uint256"
        }
      ],
      "name": "TeamInfo",
      "type": "event"
    },
    {
      "inputs": [],
      "name": "commish",
      "outputs": [
        {
          "internalType": "address",
          "name": "",
          "type": "address"
        }
      ],
      "stateMutability": "view",
      "type": "function"
    },
    {
      "inputs": [],
      "name": "currentTeams",
      "outputs": [
        {
          "internalType": "uint256",
          "name": "",
          "type": "uint256"
        }
      ],
      "stateMutability": "view",
      "type": "function"
    },
    {
      "inputs": [],
      "name": "maxTeams",
      "outputs": [
        {
          "internalType": "uint256",
          "name": "",
          "type": "uint256"
        }
      ],
      "stateMutability": "view",
      "type": "function"
    },
    {
      "inputs": [],
      "name": "minBuyInWei",
      "outputs": [
        {
          "internalType": "uint256",
          "name": "",
          "type": "uint256"
        }
      ],
      "stateMutability": "view",
      "type": "function"
    },
    {
      "inputs": [
        {
          "internalType": "uint256",
          "name": "",
          "type": "uint256"
        }
      ],
      "name": "teamIds",
      "outputs": [
        {
          "internalType": "uint256",
          "name": "",
          "type": "uint256"
        }
      ],
      "stateMutability": "view",
      "type": "function"
    },
    {
      "inputs": [
        {
          "internalType": "uint256",
          "name": "",
          "type": "uint256"
        }
      ],
      "name": "teams",
      "outputs": [
        {
          "internalType": "address payable",
          "name": "payoutAddress",
          "type": "address"
        },
        {
          "internalType": "uint256",
          "name": "amountWonInWei",
          "type": "uint256"
        },
        {
          "internalType": "uint256",
          "name": "amountPaidInWei",
          "type": "uint256"
        }
      ],
      "stateMutability": "view",
      "type": "function"
    },
    {
      "inputs": [],
      "name": "yahooLeagueId",
      "outputs": [
        {
          "internalType": "uint256",
          "name": "",
          "type": "uint256"
        }
      ],
      "stateMutability": "view",
      "type": "function"
    },
    {
      "inputs": [
        {
          "internalType": "uint256",
          "name": "_teamId",
          "type": "uint256"
        }
      ],
      "name": "addTeam",
      "outputs": [],
      "stateMutability": "payable",
      "type": "function"
    },
    {
      "inputs": [],
      "name": "getAllTeams",
      "outputs": [],
      "stateMutability": "nonpayable",
      "type": "function"
    },
    {
      "inputs": [
        {
          "internalType": "uint256",
          "name": "_total",
          "type": "uint256"
        },
        {
          "internalType": "uint256",
          "name": "_percent",
          "type": "uint256"
        }
      ],
      "name": "calculatePercentage",
      "outputs": [
        {
          "internalType": "uint256",
          "name": "",
          "type": "uint256"
        }
      ],
      "stateMutability": "pure",
      "type": "function"
    },
    {
      "inputs": [
        {
          "internalType": "address payable",
          "name": "_to",
          "type": "address"
        }
      ],
      "name": "withdrawAllMoney",
      "outputs": [],
      "stateMutability": "nonpayable",
      "type": "function"
    }
  ],
  "bytecode": "0x608060405234801561001057600080fd5b50604051610c35380380610c358339818101604052608081101561003357600080fd5b810190808051906020019092919080519060200190929190805190602001909291908051906020019092919050505083600560006101000a81548173ffffffffffffffffffffffffffffffffffffffff021916908373ffffffffffffffffffffffffffffffffffffffff160217905550826006819055508160078190555033600460006101000a81548173ffffffffffffffffffffffffffffffffffffffff021916908373ffffffffffffffffffffffffffffffffffffffff16021790555080600181905550600060028190555050505050610b21806101146000396000f3fe60806040526004361061009c5760003560e01c8063224404d311610064578063224404d3146101fb57806322ac35bc146102265780633ed2b77a1461023d578063580b6680146102c657806388cbd000146102f1578063ab9ad1d5146103405761009c565b8063034b9c34146100a157806304af1a82146100cc5780630adec93c1461012357806311d199d1146101745780632133e3b9146101a2575b600080fd5b3480156100ad57600080fd5b506100b661036b565b6040518082815260200191505060405180910390f35b3480156100d857600080fd5b506100e1610371565b604051808273ffffffffffffffffffffffffffffffffffffffff1673ffffffffffffffffffffffffffffffffffffffff16815260200191505060405180910390f35b34801561012f57600080fd5b506101726004803603602081101561014657600080fd5b81019080803573ffffffffffffffffffffffffffffffffffffffff169060200190929190505050610397565b005b6101a06004803603602081101561018a57600080fd5b81019080803590602001909291905050506104a4565b005b3480156101ae57600080fd5b506101e5600480360360408110156101c557600080fd5b810190808035906020019092919080359060200190929190505050610735565b6040518082815260200191505060405180910390f35b34801561020757600080fd5b50610210610771565b6040518082815260200191505060405180910390f35b34801561023257600080fd5b5061023b610777565b005b34801561024957600080fd5b506102766004803603602081101561026057600080fd5b810190808035906020019092919050505061084d565b604051808473ffffffffffffffffffffffffffffffffffffffff1673ffffffffffffffffffffffffffffffffffffffff168152602001838152602001828152602001935050505060405180910390f35b3480156102d257600080fd5b506102db610897565b6040518082815260200191505060405180910390f35b3480156102fd57600080fd5b5061032a6004803603602081101561031457600080fd5b810190808035906020019092919050505061089d565b6040518082815260200191505060405180910390f35b34801561034c57600080fd5b506103556108be565b6040518082815260200191505060405180910390f35b60075481565b600560009054906101000a900473ffffffffffffffffffffffffffffffffffffffff1681565b600560009054906101000a900473ffffffffffffffffffffffffffffffffffffffff1673ffffffffffffffffffffffffffffffffffffffff163373ffffffffffffffffffffffffffffffffffffffff161461045a576040517f08c379a000000000000000000000000000000000000000000000000000000000815260040180806020018281038252600f8152602001807f4e6f742074686520636f6d6d697368000000000000000000000000000000000081525060200191505060405180910390fd5b8073ffffffffffffffffffffffffffffffffffffffff166108fc479081150290604051600060405180830381858888f193505050501580156104a0573d6000803e3d6000fd5b5050565b60075434101561051c576040517f08c379a000000000000000000000000000000000000000000000000000000000815260040180806020018281038252600e8152602001807f4e6f7420656e6f7567682077656900000000000000000000000000000000000081525060200191505060405180910390fd5b61055a60008083815260200190815260200160002060000160009054906101000a900473ffffffffffffffffffffffffffffffffffffffff166108c4565b156105cd576040517f08c379a00000000000000000000000000000000000000000000000000000000081526004018080602001828103825260188152602001807f54686973207573657220616c726561647920657869737473000000000000000081525060200191505060405180910390fd5b60015460038054905010610649576040517f08c379a00000000000000000000000000000000000000000000000000000000081526004018080602001828103825260168152602001807f4d6178207465616d206c696d697420726561636865640000000000000000000081525060200191505060405180910390fd5b610651610a93565b60405180606001604052803373ffffffffffffffffffffffffffffffffffffffff168152602001600081526020013481525090508060008084815260200190815260200160002060008201518160000160006101000a81548173ffffffffffffffffffffffffffffffffffffffff021916908373ffffffffffffffffffffffffffffffffffffffff160217905550602082015181600101556040820151816002015590505060038290806001815401808255809150506001900390600052602060002001600090919091909150556002600081548092919060010191905055505050565b60008061074b83856108fd90919063ffffffff16565b905060006107646127108361098390919063ffffffff16565b9050809250505092915050565b60015481565b60008090505b60025481101561084a577f3aac7ac869ce4ecbe9cd963e77b7f9353e2c8b3a3db70168f89509f3a7ceeb82600382815481106107b557fe5b9060005260206000200154600080600385815481106107d057fe5b9060005260206000200154815260200190815260200160002060010154600080600386815481106107fd57fe5b906000526020600020015481526020019081526020016000206002015460405180848152602001838152602001828152602001935050505060405180910390a1808060010191505061077d565b50565b60006020528060005260406000206000915090508060000160009054906101000a900473ffffffffffffffffffffffffffffffffffffffff16908060010154908060020154905083565b60025481565b600381815481106108aa57fe5b906000526020600020016000915090505481565b60065481565b60008073ffffffffffffffffffffffffffffffffffffffff168273ffffffffffffffffffffffffffffffffffffffff1614159050919050565b600080831415610910576000905061097d565b600082840290508284828161092157fe5b0414610978576040517f08c379a0000000000000000000000000000000000000000000000000000000008152600401808060200182810382526021815260200180610acb6021913960400191505060405180910390fd5b809150505b92915050565b60006109c583836040518060400160405280601a81526020017f536166654d6174683a206469766973696f6e206279207a65726f0000000000008152506109cd565b905092915050565b60008083118290610a79576040517f08c379a00000000000000000000000000000000000000000000000000000000081526004018080602001828103825283818151815260200191508051906020019080838360005b83811015610a3e578082015181840152602081019050610a23565b50505050905090810190601f168015610a6b5780820380516001836020036101000a031916815260200191505b509250505060405180910390fd5b506000838581610a8557fe5b049050809150509392505050565b6040518060600160405280600073ffffffffffffffffffffffffffffffffffffffff1681526020016000815260200160008152509056fe536166654d6174683a206d756c7469706c69636174696f6e206f766572666c6f77a2646970667358221220c26f5db25379f7c371e5eb0cacf5fed8ab7634c40856acdbfed5bc2a23d01f4b64736f6c63430006060033",
  "immutableReferences": {},
  "source": "pragma solidity 0.6.6;\n\nimport \"@openzeppelin/contracts/math/SafeMath.sol\";\n\ncontract BaseLeague {\n    using SafeMath for uint256;\n\n    struct Team {\n        address payable payoutAddress;\n        uint256 amountWonInWei;\n        uint256 amountPaidInWei;\n    }\n\n    mapping(uint256 => Team) public teams;\n    uint256 public maxTeams;\n    uint256 public currentTeams;\n    uint256[] public teamIds;\n\n    address internal factoryAddress;\n    address public commish;\n    uint256 public yahooLeagueId;\n    uint256 public minBuyInWei;\n\n    constructor(\n        address _commish,\n        uint256 _yahooLeagueId,\n        uint256 _minBuyInWei,\n        uint256 _maxTeams\n    ) public {\n        commish = _commish;\n        yahooLeagueId = _yahooLeagueId;\n        minBuyInWei = _minBuyInWei;\n        factoryAddress = msg.sender;\n        maxTeams = _maxTeams;\n        currentTeams = 0;\n    }\n\n    function addTeam(uint256 _teamId) public payable enoughBuyIn {\n        require(\n            !isValidAddress(teams[_teamId].payoutAddress),\n            \"This user already exists\"\n        );\n        require(teamIds.length < maxTeams, \"Max team limit reached\");\n\n        Team memory team = Team({\n            payoutAddress: msg.sender,\n            amountPaidInWei: msg.value,\n            amountWonInWei: 0\n        });\n\n        teams[_teamId] = team;\n        teamIds.push(_teamId);\n        currentTeams++;\n    }\n\n    event TeamInfo(\n        uint256 teamId,\n        uint256 amountWonInWei,\n        uint256 amountPaidInWei\n    );\n\n    function getAllTeams() public {\n        uint256 index = 0;\n        while (index < currentTeams) {\n            emit TeamInfo(\n                teamIds[index],\n                teams[teamIds[index]].amountWonInWei,\n                teams[teamIds[index]].amountPaidInWei\n            );\n            index++;\n        }\n    }\n\n    modifier onlyCommish() {\n        require(msg.sender == commish, \"Not the commish\");\n        _;\n    }\n\n    modifier enoughBuyIn() {\n        require(msg.value >= minBuyInWei, \"Not enough wei\");\n        _;\n    }\n\n    modifier isFactoryContract() {\n        require(msg.sender == factoryAddress, \"Not factory contract\");\n        _;\n    }\n\n    modifier validAddress(address _addr) {\n        require(isValidAddress(_addr), \"Not valid address\");\n        _;\n    }\n\n    function isValidAddress(address _addr) internal pure returns (bool) {\n        return (_addr != address(0));\n    }\n\n    function calculatePercentage(uint256 _total, uint256 _percent)\n        public\n        pure\n        returns (uint256)\n    {\n        uint256 mult = _total.mul(_percent);\n        uint256 answer = mult.div(10000);\n        return answer;\n    }\n\n    function withdrawAllMoney(address payable _to) public onlyCommish {\n        _to.transfer(address(this).balance);\n    }\n}\n",
  "sourcePath": "/Users/mattwalker/eth/commish-contracts/contracts/BaseLeague.sol",
  "compiler": {
    "name": "solc",
    "version": "0.6.6+commit.6c089d02.Emscripten.clang"
  },
  "schemaVersion": "3.1.0",
  "updatedAt": "2020-07-17T15:48:49.025Z",
  "devdoc": {
    "methods": {}
  },
  "userdoc": {
    "methods": {}
  }
}