{
  "contractName": "LeagueFactory",
  "abi": [
    {
      "inputs": [
        {
          "internalType": "uint256",
          "name": "",
          "type": "uint256"
        }
      ],
      "name": "seasonLeagues",
      "outputs": [
        {
          "internalType": "address",
          "name": "",
          "type": "address"
        }
      ],
      "stateMutability": "view",
      "type": "function",
      "constant": true
    },
    {
      "inputs": [
        {
          "internalType": "uint256",
          "name": "",
          "type": "uint256"
        }
      ],
      "name": "weeklyLeagues",
      "outputs": [
        {
          "internalType": "address",
          "name": "",
          "type": "address"
        }
      ],
      "stateMutability": "view",
      "type": "function",
      "constant": true
    },
    {
      "inputs": [
        {
          "internalType": "uint256",
          "name": "_yahooLeagueId",
          "type": "uint256"
        },
        {
          "internalType": "uint256",
          "name": "_minBuyInWei",
          "type": "uint256"
        },
        {
          "internalType": "uint256",
          "name": "_teamLimit",
          "type": "uint256"
        },
        {
          "internalType": "uint256[]",
          "name": "_percents",
          "type": "uint256[]"
        }
      ],
      "name": "createSeasonLeague",
      "outputs": [],
      "stateMutability": "nonpayable",
      "type": "function"
    },
    {
      "inputs": [
        {
          "internalType": "uint256",
          "name": "_yahooLeagueId",
          "type": "uint256"
        },
        {
          "internalType": "uint256",
          "name": "_minBuyInWei",
          "type": "uint256"
        },
        {
          "internalType": "uint8",
          "name": "_totalWeeks",
          "type": "uint8"
        },
        {
          "internalType": "uint256",
          "name": "_teamLimit",
          "type": "uint256"
        }
      ],
      "name": "createWeeklyLeague",
      "outputs": [],
      "stateMutability": "nonpayable",
      "type": "function"
    }
  ],
  "bytecode": "0x608060405234801561001057600080fd5b50613324806100206000396000f3fe608060405234801561001057600080fd5b506004361061004c5760003560e01c806310ce36e5146100515780637708c260146100bf578063a98df69914610195578063c7b11f38146101e4575b600080fd5b61007d6004803603602081101561006757600080fd5b8101908080359060200190929190505050610252565b604051808273ffffffffffffffffffffffffffffffffffffffff1673ffffffffffffffffffffffffffffffffffffffff16815260200191505060405180910390f35b610193600480360360808110156100d557600080fd5b810190808035906020019092919080359060200190929190803590602001909291908035906020019064010000000081111561011057600080fd5b82018360208201111561012257600080fd5b8035906020019184602083028401116401000000008311171561014457600080fd5b919080806020026020016040519081016040528093929190818152602001838360200280828437600081840152601f19601f820116905080830192505050505050509192919290505050610285565b005b6101e2600480360360808110156101ab57600080fd5b810190808035906020019092919080359060200190929190803560ff1690602001909291908035906020019092919050505061054f565b005b610210600480360360208110156101fa57600080fd5b8101908080359060200190929190505050610692565b604051808273ffffffffffffffffffffffffffffffffffffffff1673ffffffffffffffffffffffffffffffffffffffff16815260200191505060405180910390f35b60016020528060005260406000206000915054906101000a900473ffffffffffffffffffffffffffffffffffffffff1681565b60048151146102fc576040517f08c379a00000000000000000000000000000000000000000000000000000000081526004018080602001828103825260148152602001807f4d757374206861766520342070657263656e747300000000000000000000000081525060200191505060405180910390fd5b60008160038151811061030b57fe5b60200260200101518260028151811061032057fe5b60200260200101518360018151811061033557fe5b60200260200101518460008151811061034a57fe5b6020026020010151010101905061271081146103ce576040517f08c379a00000000000000000000000000000000000000000000000000000000081526004018080602001828103825260138152602001807f446f6573206e6f7420657175616c20313030250000000000000000000000000081525060200191505060405180910390fd5b6000338686866040516103e0906106c5565b808573ffffffffffffffffffffffffffffffffffffffff1673ffffffffffffffffffffffffffffffffffffffff168152602001848152602001838152602001828152602001945050505050604051809103906000f080158015610447573d6000803e3d6000fd5b5090508060008088815260200190815260200160002060006101000a81548173ffffffffffffffffffffffffffffffffffffffff021916908373ffffffffffffffffffffffffffffffffffffffff1602179055508073ffffffffffffffffffffffffffffffffffffffff1663edb83e6b846040518263ffffffff1660e01b81526004018080602001828103825283818151815260200191508051906020019060200280838360005b8381101561050a5780820151818401526020810190506104ef565b5050505090500192505050600060405180830381600087803b15801561052f57600080fd5b505af1158015610543573d6000803e3d6000fd5b50505050505050505050565b600033858584604051610561906106d2565b808573ffffffffffffffffffffffffffffffffffffffff1673ffffffffffffffffffffffffffffffffffffffff168152602001848152602001838152602001828152602001945050505050604051809103906000f0801580156105c8573d6000803e3d6000fd5b509050806001600087815260200190815260200160002060006101000a81548173ffffffffffffffffffffffffffffffffffffffff021916908373ffffffffffffffffffffffffffffffffffffffff1602179055508073ffffffffffffffffffffffffffffffffffffffff1663ee8940fd846040518263ffffffff1660e01b8152600401808260ff168152602001915050600060405180830381600087803b15801561067357600080fd5b505af1158015610687573d6000803e3d6000fd5b505050505050505050565b60006020528060005260406000206000915054906101000a900473ffffffffffffffffffffffffffffffffffffffff1681565b611702806106e083390190565b61150d80611de28339019056fe608060405260006009556000600a60006101000a81548160ff02191690831515021790555034801561003057600080fd5b506040516117023803806117028339818101604052608081101561005357600080fd5b81019080805190602001909291908051906020019092919080519060200190929190805190602001909291905050508383838383600560006101000a81548173ffffffffffffffffffffffffffffffffffffffff021916908373ffffffffffffffffffffffffffffffffffffffff160217905550826006819055508160078190555033600460006101000a81548173ffffffffffffffffffffffffffffffffffffffff021916908373ffffffffffffffffffffffffffffffffffffffff16021790555080600181905550600060028190555050505050505050506115c68061013c6000396000f3fe6080604052600436106100f35760003560e01c80634db0ccf41161008a578063ab9ad1d511610059578063ab9ad1d514610487578063ecd2be5b146104b2578063edb83e6b146104e1578063fc5a5b63146105a6576100f3565b80634db0ccf41461031d578063580b6680146103e257806372556ffc1461040d57806388cbd00014610438576100f3565b80632133e3b9116100c65780632133e3b9146101f9578063224404d31461025257806322ac35bc1461027d5780633ed2b77a14610294576100f3565b8063034b9c34146100f857806304af1a82146101235780630adec93c1461017a57806311d199d1146101cb575b600080fd5b34801561010457600080fd5b5061010d6105f5565b6040518082815260200191505060405180910390f35b34801561012f57600080fd5b506101386105fb565b604051808273ffffffffffffffffffffffffffffffffffffffff1673ffffffffffffffffffffffffffffffffffffffff16815260200191505060405180910390f35b34801561018657600080fd5b506101c96004803603602081101561019d57600080fd5b81019080803573ffffffffffffffffffffffffffffffffffffffff169060200190929190505050610621565b005b6101f7600480360360208110156101e157600080fd5b810190808035906020019092919050505061072e565b005b34801561020557600080fd5b5061023c6004803603604081101561021c57600080fd5b8101908080359060200190929190803590602001909291905050506109bf565b6040518082815260200191505060405180910390f35b34801561025e57600080fd5b506102676109fb565b6040518082815260200191505060405180910390f35b34801561028957600080fd5b50610292610a01565b005b3480156102a057600080fd5b506102cd600480360360208110156102b757600080fd5b8101908080359060200190929190505050610ad7565b604051808473ffffffffffffffffffffffffffffffffffffffff1673ffffffffffffffffffffffffffffffffffffffff168152602001838152602001828152602001935050505060405180910390f35b34801561032957600080fd5b506103e06004803603602081101561034057600080fd5b810190808035906020019064010000000081111561035d57600080fd5b82018360208201111561036f57600080fd5b8035906020019184602083028401116401000000008311171561039157600080fd5b919080806020026020016040519081016040528093929190818152602001838360200280828437600081840152601f19601f820116905080830192505050505050509192919290505050610b21565b005b3480156103ee57600080fd5b506103f76110fb565b6040518082815260200191505060405180910390f35b34801561041957600080fd5b50610422611101565b6040518082815260200191505060405180910390f35b34801561044457600080fd5b506104716004803603602081101561045b57600080fd5b8101908080359060200190929190505050611107565b6040518082815260200191505060405180910390f35b34801561049357600080fd5b5061049c611128565b6040518082815260200191505060405180910390f35b3480156104be57600080fd5b506104c761112e565b604051808215151515815260200191505060405180910390f35b3480156104ed57600080fd5b506105a46004803603602081101561050457600080fd5b810190808035906020019064010000000081111561052157600080fd5b82018360208201111561053357600080fd5b8035906020019184602083028401116401000000008311171561055557600080fd5b919080806020026020016040519081016040528093929190818152602001838360200280828437600081840152601f19601f820116905080830192505050505050509192919290505050611141565b005b3480156105b257600080fd5b506105df600480360360208110156105c957600080fd5b81019080803590602001909291905050506112b0565b6040518082815260200191505060405180910390f35b60075481565b600560009054906101000a900473ffffffffffffffffffffffffffffffffffffffff1681565b600560009054906101000a900473ffffffffffffffffffffffffffffffffffffffff1673ffffffffffffffffffffffffffffffffffffffff163373ffffffffffffffffffffffffffffffffffffffff16146106e4576040517f08c379a000000000000000000000000000000000000000000000000000000000815260040180806020018281038252600f8152602001807f4e6f742074686520636f6d6d697368000000000000000000000000000000000081525060200191505060405180910390fd5b8073ffffffffffffffffffffffffffffffffffffffff166108fc479081150290604051600060405180830381858888f1935050505015801561072a573d6000803e3d6000fd5b5050565b6007543410156107a6576040517f08c379a000000000000000000000000000000000000000000000000000000000815260040180806020018281038252600e8152602001807f4e6f7420656e6f7567682077656900000000000000000000000000000000000081525060200191505060405180910390fd5b6107e460008083815260200190815260200160002060000160009054906101000a900473ffffffffffffffffffffffffffffffffffffffff166112ce565b15610857576040517f08c379a00000000000000000000000000000000000000000000000000000000081526004018080602001828103825260188152602001807f54686973207573657220616c726561647920657869737473000000000000000081525060200191505060405180910390fd5b600154600380549050106108d3576040517f08c379a00000000000000000000000000000000000000000000000000000000081526004018080602001828103825260168152602001807f4d6178207465616d206c696d697420726561636865640000000000000000000081525060200191505060405180910390fd5b6108db611525565b60405180606001604052803373ffffffffffffffffffffffffffffffffffffffff168152602001600081526020013481525090508060008084815260200190815260200160002060008201518160000160006101000a81548173ffffffffffffffffffffffffffffffffffffffff021916908373ffffffffffffffffffffffffffffffffffffffff160217905550602082015181600101556040820151816002015590505060038290806001815401808255809150506001900390600052602060002001600090919091909150556002600081548092919060010191905055505050565b6000806109d5838561130790919063ffffffff16565b905060006109ee6127108361138d90919063ffffffff16565b9050809250505092915050565b60015481565b60008090505b600254811015610ad4577f3aac7ac869ce4ecbe9cd963e77b7f9353e2c8b3a3db70168f89509f3a7ceeb8260038281548110610a3f57fe5b906000526020600020015460008060038581548110610a5a57fe5b906000526020600020015481526020019081526020016000206001015460008060038681548110610a8757fe5b906000526020600020015481526020019081526020016000206002015460405180848152602001838152602001828152602001935050505060405180910390a18080600101915050610a07565b50565b60006020528060005260406000206000915090508060000160009054906101000a900473ffffffffffffffffffffffffffffffffffffffff16908060010154908060020154905083565b600560009054906101000a900473ffffffffffffffffffffffffffffffffffffffff1673ffffffffffffffffffffffffffffffffffffffff163373ffffffffffffffffffffffffffffffffffffffff1614610be4576040517f08c379a000000000000000000000000000000000000000000000000000000000815260040180806020018281038252600f8152602001807f4e6f742074686520636f6d6d697368000000000000000000000000000000000081525060200191505060405180910390fd5b6004815114610c5b576040517f08c379a00000000000000000000000000000000000000000000000000000000081526004018080602001828103825260168152602001807f4d757374206861766520666f75722077696e6e6572730000000000000000000081525060200191505060405180910390fd5b60004790506000610c83826008600060018152602001908152602001600020600001546109bf565b90506000610ca8836008600060028152602001908152602001600020600001546109bf565b90506000610ccd846008600060038152602001908152602001600020600001546109bf565b90506000610cf2856008600060048152602001908152602001600020600001546109bf565b9050610d308460008089600081518110610d0857fe5b60200260200101518152602001908152602001600020600101546113d790919063ffffffff16565b60008088600081518110610d4057fe5b6020026020010151815260200190815260200160002060010181905550610d998360008089600181518110610d7157fe5b60200260200101518152602001908152602001600020600101546113d790919063ffffffff16565b60008088600181518110610da957fe5b6020026020010151815260200190815260200160002060010181905550610e028260008089600281518110610dda57fe5b60200260200101518152602001908152602001600020600101546113d790919063ffffffff16565b60008088600281518110610e1257fe5b6020026020010151815260200190815260200160002060010181905550610e6b8160008089600381518110610e4357fe5b60200260200101518152602001908152602001600020600101546113d790919063ffffffff16565b60008088600381518110610e7b57fe5b60200260200101518152602001908152602001600020600101819055506001600a60006101000a81548160ff02191690831515021790555060008087600081518110610ec357fe5b6020026020010151815260200190815260200160002060000160009054906101000a900473ffffffffffffffffffffffffffffffffffffffff1673ffffffffffffffffffffffffffffffffffffffff166108fc859081150290604051600060405180830381858888f19350505050158015610f42573d6000803e3d6000fd5b5060008087600181518110610f5357fe5b6020026020010151815260200190815260200160002060000160009054906101000a900473ffffffffffffffffffffffffffffffffffffffff1673ffffffffffffffffffffffffffffffffffffffff166108fc849081150290604051600060405180830381858888f19350505050158015610fd2573d6000803e3d6000fd5b5060008087600281518110610fe357fe5b6020026020010151815260200190815260200160002060000160009054906101000a900473ffffffffffffffffffffffffffffffffffffffff1673ffffffffffffffffffffffffffffffffffffffff166108fc839081150290604051600060405180830381858888f19350505050158015611062573d6000803e3d6000fd5b506000808760038151811061107357fe5b6020026020010151815260200190815260200160002060000160009054906101000a900473ffffffffffffffffffffffffffffffffffffffff1673ffffffffffffffffffffffffffffffffffffffff166108fc829081150290604051600060405180830381858888f193505050501580156110f2573d6000803e3d6000fd5b50505050505050565b60025481565b60095481565b6003818154811061111457fe5b906000526020600020016000915090505481565b60065481565b600a60009054906101000a900460ff1681565b600460009054906101000a900473ffffffffffffffffffffffffffffffffffffffff1673ffffffffffffffffffffffffffffffffffffffff163373ffffffffffffffffffffffffffffffffffffffff1614611204576040517f08c379a00000000000000000000000000000000000000000000000000000000081526004018080602001828103825260148152602001807f4e6f7420666163746f727920636f6e747261637400000000000000000000000081525060200191505060405180910390fd5b60008090505b81518160ff1610156112ac5761121e61155c565b6040518060200160405280848460ff168151811061123857fe5b6020026020010151815250905080600860006001850160ff168152602001908152602001600020600082015181600001559050506000838360ff168151811061127d57fe5b6020026020010151111561129e576009600081548092919060010191905055505b81806001019250505061120a565b5050565b60086020528060005260406000206000915090508060000154905081565b60008073ffffffffffffffffffffffffffffffffffffffff168273ffffffffffffffffffffffffffffffffffffffff1614159050919050565b60008083141561131a5760009050611387565b600082840290508284828161132b57fe5b0414611382576040517f08c379a00000000000000000000000000000000000000000000000000000000081526004018080602001828103825260218152602001806115706021913960400191505060405180910390fd5b809150505b92915050565b60006113cf83836040518060400160405280601a81526020017f536166654d6174683a206469766973696f6e206279207a65726f00000000000081525061145f565b905092915050565b600080828401905083811015611455576040517f08c379a000000000000000000000000000000000000000000000000000000000815260040180806020018281038252601b8152602001807f536166654d6174683a206164646974696f6e206f766572666c6f77000000000081525060200191505060405180910390fd5b8091505092915050565b6000808311829061150b576040517f08c379a00000000000000000000000000000000000000000000000000000000081526004018080602001828103825283818151815260200191508051906020019080838360005b838110156114d05780820151818401526020810190506114b5565b50505050905090810190601f1680156114fd5780820380516001836020036101000a031916815260200191505b509250505060405180910390fd5b50600083858161151757fe5b049050809150509392505050565b6040518060600160405280600073ffffffffffffffffffffffffffffffffffffffff16815260200160008152602001600081525090565b604051806020016040528060008152509056fe536166654d6174683a206d756c7469706c69636174696f6e206f766572666c6f77a26469706673582212206284897229203ccd3b22786014b6dbd7ef2ef2c0f7a864f72fa8703fa74965c264736f6c63430006060033608060405234801561001057600080fd5b5060405161150d38038061150d8339818101604052608081101561003357600080fd5b81019080805190602001909291908051906020019092919080519060200190929190805190602001909291905050508383838383600560006101000a81548173ffffffffffffffffffffffffffffffffffffffff021916908373ffffffffffffffffffffffffffffffffffffffff160217905550826006819055508160078190555033600460006101000a81548173ffffffffffffffffffffffffffffffffffffffff021916908373ffffffffffffffffffffffffffffffffffffffff16021790555080600181905550600060028190555050505050505050506113f18061011c6000396000f3fe6080604052600436106100f35760003560e01c8063224404d31161008a578063580b668011610059578063580b6680146103e957806388cbd00014610414578063ab9ad1d514610463578063ee8940fd1461048e576100f3565b8063224404d3146102e357806322ac35bc1461030e5780633ed2b77a146103255780633feda757146103ae576100f3565b80630be08114116100c65780630be08114146101f65780630f100cb71461022157806311d199d11461025c5780632133e3b91461028a576100f3565b8063034b9c34146100f857806304af1a821461012357806306575c891461017a5780630adec93c146101a5575b600080fd5b34801561010457600080fd5b5061010d6104c9565b6040518082815260200191505060405180910390f35b34801561012f57600080fd5b506101386104cf565b604051808273ffffffffffffffffffffffffffffffffffffffff1673ffffffffffffffffffffffffffffffffffffffff16815260200191505060405180910390f35b34801561018657600080fd5b5061018f6104f5565b6040518082815260200191505060405180910390f35b3480156101b157600080fd5b506101f4600480360360208110156101c857600080fd5b81019080803573ffffffffffffffffffffffffffffffffffffffff1690602001909291905050506104fb565b005b34801561020257600080fd5b5061020b610608565b6040518082815260200191505060405180910390f35b34801561022d57600080fd5b5061025a6004803603602081101561024457600080fd5b810190808035906020019092919050505061060e565b005b6102886004803603602081101561027257600080fd5b81019080803590602001909291905050506107ea565b005b34801561029657600080fd5b506102cd600480360360408110156102ad57600080fd5b810190808035906020019092919080359060200190929190505050610a7b565b6040518082815260200191505060405180910390f35b3480156102ef57600080fd5b506102f8610ab7565b6040518082815260200191505060405180910390f35b34801561031a57600080fd5b50610323610abd565b005b34801561033157600080fd5b5061035e6004803603602081101561034857600080fd5b8101908080359060200190929190505050610b93565b604051808473ffffffffffffffffffffffffffffffffffffffff1673ffffffffffffffffffffffffffffffffffffffff168152602001838152602001828152602001935050505060405180910390f35b3480156103ba57600080fd5b506103e7600480360360208110156103d157600080fd5b8101908080359060200190929190505050610bdd565b005b3480156103f557600080fd5b506103fe610e7f565b6040518082815260200191505060405180910390f35b34801561042057600080fd5b5061044d6004803603602081101561043757600080fd5b8101908080359060200190929190505050610e85565b6040518082815260200191505060405180910390f35b34801561046f57600080fd5b50610478610ea6565b6040518082815260200191505060405180910390f35b34801561049a57600080fd5b506104c7600480360360208110156104b157600080fd5b8101908080359060200190929190505050610eac565b005b60075481565b600560009054906101000a900473ffffffffffffffffffffffffffffffffffffffff1681565b60095481565b600560009054906101000a900473ffffffffffffffffffffffffffffffffffffffff1673ffffffffffffffffffffffffffffffffffffffff163373ffffffffffffffffffffffffffffffffffffffff16146105be576040517f08c379a000000000000000000000000000000000000000000000000000000000815260040180806020018281038252600f8152602001807f4e6f742074686520636f6d6d697368000000000000000000000000000000000081525060200191505060405180910390fd5b8073ffffffffffffffffffffffffffffffffffffffff166108fc479081150290604051600060405180830381858888f19350505050158015610604573d6000803e3d6000fd5b5050565b60085481565b600560009054906101000a900473ffffffffffffffffffffffffffffffffffffffff1673ffffffffffffffffffffffffffffffffffffffff163373ffffffffffffffffffffffffffffffffffffffff16146106d1576040517f08c379a000000000000000000000000000000000000000000000000000000000815260040180806020018281038252600f8152602001807f4e6f742074686520636f6d6d697368000000000000000000000000000000000081525060200191505060405180910390fd5b60095481101561072c576040517f08c379a000000000000000000000000000000000000000000000000000000000815260040180806020018281038252602a815260200180611349602a913960400191505060405180910390fd5b6011811115610786576040517f08c379a00000000000000000000000000000000000000000000000000000000081526004018080602001828103825260288152602001806113946028913960400191505060405180910390fd5b60018110156107e0576040517f08c379a000000000000000000000000000000000000000000000000000000000815260040180806020018281038252602f81526020018061131a602f913960400191505060405180910390fd5b8060088190555050565b600754341015610862576040517f08c379a000000000000000000000000000000000000000000000000000000000815260040180806020018281038252600e8152602001807f4e6f7420656e6f7567682077656900000000000000000000000000000000000081525060200191505060405180910390fd5b6108a060008083815260200190815260200160002060000160009054906101000a900473ffffffffffffffffffffffffffffffffffffffff16610f81565b15610913576040517f08c379a00000000000000000000000000000000000000000000000000000000081526004018080602001828103825260188152602001807f54686973207573657220616c726561647920657869737473000000000000000081525060200191505060405180910390fd5b6001546003805490501061098f576040517f08c379a00000000000000000000000000000000000000000000000000000000081526004018080602001828103825260168152602001807f4d6178207465616d206c696d697420726561636865640000000000000000000081525060200191505060405180910390fd5b6109976112e2565b60405180606001604052803373ffffffffffffffffffffffffffffffffffffffff168152602001600081526020013481525090508060008084815260200190815260200160002060008201518160000160006101000a81548173ffffffffffffffffffffffffffffffffffffffff021916908373ffffffffffffffffffffffffffffffffffffffff160217905550602082015181600101556040820151816002015590505060038290806001815401808255809150506001900390600052602060002001600090919091909150556002600081548092919060010191905055505050565b600080610a918385610fba90919063ffffffff16565b90506000610aaa6127108361104090919063ffffffff16565b9050809250505092915050565b60015481565b60008090505b600254811015610b90577f3aac7ac869ce4ecbe9cd963e77b7f9353e2c8b3a3db70168f89509f3a7ceeb8260038281548110610afb57fe5b906000526020600020015460008060038581548110610b1657fe5b906000526020600020015481526020019081526020016000206001015460008060038681548110610b4357fe5b906000526020600020015481526020019081526020016000206002015460405180848152602001838152602001828152602001935050505060405180910390a18080600101915050610ac3565b50565b60006020528060005260406000206000915090508060000160009054906101000a900473ffffffffffffffffffffffffffffffffffffffff16908060010154908060020154905083565b600560009054906101000a900473ffffffffffffffffffffffffffffffffffffffff1673ffffffffffffffffffffffffffffffffffffffff163373ffffffffffffffffffffffffffffffffffffffff1614610ca0576040517f08c379a000000000000000000000000000000000000000000000000000000000815260040180806020018281038252600f8152602001807f4e6f742074686520636f6d6d697368000000000000000000000000000000000081525060200191505060405180910390fd5b610cde60008083815260200190815260200160002060000160009054906101000a900473ffffffffffffffffffffffffffffffffffffffff16610f81565b610d50576040517f08c379a00000000000000000000000000000000000000000000000000000000081526004018080602001828103825260108152602001807f4e6f7420612076616c696420757365720000000000000000000000000000000081525060200191505060405180910390fd5b6000610d68600160085461108a90919063ffffffff16565b90506000610d816009548361111290919063ffffffff16565b90506000610d98824761104090919063ffffffff16565b90506000610dc4826000808881526020019081526020016000206001015461108a90919063ffffffff16565b90508060008087815260200190815260200160002060010181905550610df6600160095461108a90919063ffffffff16565b60098190555060008086815260200190815260200160002060000160009054906101000a900473ffffffffffffffffffffffffffffffffffffffff1673ffffffffffffffffffffffffffffffffffffffff166108fc839081150290604051600060405180830381858888f19350505050158015610e77573d6000803e3d6000fd5b505050505050565b60025481565b60038181548110610e9257fe5b906000526020600020016000915090505481565b60065481565b600460009054906101000a900473ffffffffffffffffffffffffffffffffffffffff1673ffffffffffffffffffffffffffffffffffffffff163373ffffffffffffffffffffffffffffffffffffffff1614610f6f576040517f08c379a00000000000000000000000000000000000000000000000000000000081526004018080602001828103825260148152602001807f4e6f7420666163746f727920636f6e747261637400000000000000000000000081525060200191505060405180910390fd5b80600881905550600160098190555050565b60008073ffffffffffffffffffffffffffffffffffffffff168273ffffffffffffffffffffffffffffffffffffffff1614159050919050565b600080831415610fcd576000905061103a565b6000828402905082848281610fde57fe5b0414611035576040517f08c379a00000000000000000000000000000000000000000000000000000000081526004018080602001828103825260218152602001806113736021913960400191505060405180910390fd5b809150505b92915050565b600061108283836040518060400160405280601a81526020017f536166654d6174683a206469766973696f6e206279207a65726f00000000000081525061115c565b905092915050565b600080828401905083811015611108576040517f08c379a000000000000000000000000000000000000000000000000000000000815260040180806020018281038252601b8152602001807f536166654d6174683a206164646974696f6e206f766572666c6f77000000000081525060200191505060405180910390fd5b8091505092915050565b600061115483836040518060400160405280601e81526020017f536166654d6174683a207375627472616374696f6e206f766572666c6f770000815250611222565b905092915050565b60008083118290611208576040517f08c379a00000000000000000000000000000000000000000000000000000000081526004018080602001828103825283818151815260200191508051906020019080838360005b838110156111cd5780820151818401526020810190506111b2565b50505050905090810190601f1680156111fa5780820380516001836020036101000a031916815260200191505b509250505060405180910390fd5b50600083858161121457fe5b049050809150509392505050565b60008383111582906112cf576040517f08c379a00000000000000000000000000000000000000000000000000000000081526004018080602001828103825283818151815260200191508051906020019080838360005b83811015611294578082015181840152602081019050611279565b50505050905090810190601f1680156112c15780820380516001836020036101000a031916815260200191505b509250505060405180910390fd5b5060008385039050809150509392505050565b6040518060600160405280600073ffffffffffffffffffffffffffffffffffffffff1681526020016000815260200160008152509056fe5468657265206973206d6f7265207468616e207a65726f207765656b7320696e20746865204e464c20736561736f6e546f74616c207765656b732063616e74206265206c657373207468616e2063757272656e74207765656b536166654d6174683a206d756c7469706c69636174696f6e206f766572666c6f77546865726520617265206d6178203137207765656b7320696e20746865204e464c20736561736f6ea26469706673582212205fc3158422b180c7d5b3c9b98595bcb0579327fe4e5500d30777bbcdc287421664736f6c63430006060033a2646970667358221220bd2d265bd20d15ed876ad1f2aa86b3fd4df312decb2fc881f00110e9ad958e5264736f6c63430006060033",
  "immutableReferences": {},
  "source": "pragma solidity 0.6.6;\n\nimport \"./SeasonLeague.sol\";\nimport \"./WeeklyLeague.sol\";\n\ncontract LeagueFactory {\n    mapping(uint256 => address) public seasonLeagues;\n    mapping(uint256 => address) public weeklyLeagues;\n\n    function createSeasonLeague(\n        uint256 _yahooLeagueId,\n        uint256 _minBuyInWei,\n        uint256 _teamLimit,\n        uint256[] memory _percents\n    ) public {\n        require(_percents.length == 4, \"Must have 4 percents\");\n        uint256 totalPercents = _percents[0] +\n            (_percents[1]) +\n            (_percents[2]) +\n            (_percents[3]);\n\n        require(totalPercents == 10000, \"Does not equal 100%\");\n\n        SeasonLeague league = new SeasonLeague(\n            msg.sender,\n            _yahooLeagueId,\n            _minBuyInWei,\n            _teamLimit\n        );\n        seasonLeagues[_yahooLeagueId] = address(league);\n        league.addSeasonDetails(_percents);\n    }\n\n    function createWeeklyLeague(\n        uint256 _yahooLeagueId,\n        uint256 _minBuyInWei,\n        uint8 _totalWeeks,\n        uint256 _teamLimit\n    ) public {\n        WeeklyLeague league = new WeeklyLeague(\n            msg.sender,\n            _yahooLeagueId,\n            _minBuyInWei,\n            _teamLimit\n        );\n        weeklyLeagues[_yahooLeagueId] = address(league);\n        league.addWeeklyDetails(_totalWeeks);\n    }\n}\n",
  "sourcePath": "/Users/mattwalker/eth/commish-contracts/contracts/LeagueFactory.sol",
  "compiler": {
    "name": "solc",
    "version": "0.6.6+commit.6c089d02.Emscripten.clang"
  },
  "schemaVersion": "3.1.0",
  "updatedAt": "2020-07-17T15:53:56.319Z",
  "networkType": "ethereum",
  "devdoc": {
    "methods": {}
  },
  "userdoc": {
    "methods": {}
  }
}