{
  "contractName": "League",
  "abi": [
    {
      "inputs": [
        {
          "internalType": "address",
          "name": "_owner",
          "type": "address"
        },
        {
          "internalType": "uint256",
          "name": "_yahooLeagueId",
          "type": "uint256"
        },
        {
          "internalType": "uint256",
          "name": "_minBuyInWei",
          "type": "uint256"
        }
      ],
      "stateMutability": "nonpayable",
      "type": "constructor"
    },
    {
      "inputs": [],
      "name": "commish",
      "outputs": [
        {
          "internalType": "address",
          "name": "",
          "type": "address"
        }
      ],
      "stateMutability": "view",
      "type": "function"
    },
    {
      "inputs": [],
      "name": "minBuyInWei",
      "outputs": [
        {
          "internalType": "uint256",
          "name": "",
          "type": "uint256"
        }
      ],
      "stateMutability": "view",
      "type": "function"
    },
    {
      "inputs": [
        {
          "internalType": "uint256",
          "name": "",
          "type": "uint256"
        }
      ],
      "name": "teamAddresses",
      "outputs": [
        {
          "internalType": "address",
          "name": "",
          "type": "address"
        }
      ],
      "stateMutability": "view",
      "type": "function"
    },
    {
      "inputs": [
        {
          "internalType": "address",
          "name": "",
          "type": "address"
        }
      ],
      "name": "teams",
      "outputs": [
        {
          "internalType": "uint256",
          "name": "teamId",
          "type": "uint256"
        },
        {
          "internalType": "uint256",
          "name": "amountPaidInWei",
          "type": "uint256"
        },
        {
          "internalType": "uint256",
          "name": "amountWonInWei",
          "type": "uint256"
        }
      ],
      "stateMutability": "view",
      "type": "function"
    },
    {
      "inputs": [],
      "name": "yahooLeagueId",
      "outputs": [
        {
          "internalType": "uint256",
          "name": "",
          "type": "uint256"
        }
      ],
      "stateMutability": "view",
      "type": "function"
    },
    {
      "inputs": [
        {
          "internalType": "uint256",
          "name": "_teamId",
          "type": "uint256"
        }
      ],
      "name": "addTeam",
      "outputs": [],
      "stateMutability": "payable",
      "type": "function"
    },
    {
      "inputs": [
        {
          "internalType": "address",
          "name": "_team",
          "type": "address"
        }
      ],
      "name": "returnTeam",
      "outputs": [
        {
          "internalType": "uint256",
          "name": "",
          "type": "uint256"
        },
        {
          "internalType": "uint256",
          "name": "",
          "type": "uint256"
        },
        {
          "internalType": "uint256",
          "name": "",
          "type": "uint256"
        }
      ],
      "stateMutability": "view",
      "type": "function"
    },
    {
      "inputs": [
        {
          "internalType": "address payable",
          "name": "_to",
          "type": "address"
        }
      ],
      "name": "withdrawAllMoney",
      "outputs": [],
      "stateMutability": "nonpayable",
      "type": "function"
    }
  ],
  "bytecode": "0x608060405234801561001057600080fd5b506040516107e63803806107e68339818101604052606081101561003357600080fd5b81019080805190602001909291908051906020019092919080519060200190929190505050826000806101000a81548173ffffffffffffffffffffffffffffffffffffffff021916908373ffffffffffffffffffffffffffffffffffffffff160217905550816001819055508060028190555050505061072e806100b86000396000f3fe60806040526004361061007b5760003560e01c80632419217e1161004e5780632419217e14610181578063ab9ad1d5146101fc578063c458324014610227578063e74a614c1461029a5761007b565b8063034b9c341461008057806304af1a82146100ab5780630adec93c1461010257806311d199d114610153575b600080fd5b34801561008c57600080fd5b5061009561030d565b6040518082815260200191505060405180910390f35b3480156100b757600080fd5b506100c0610313565b604051808273ffffffffffffffffffffffffffffffffffffffff1673ffffffffffffffffffffffffffffffffffffffff16815260200191505060405180910390f35b34801561010e57600080fd5b506101516004803603602081101561012557600080fd5b81019080803573ffffffffffffffffffffffffffffffffffffffff169060200190929190505050610338565b005b61017f6004803603602081101561016957600080fd5b8101908080359060200190929190505050610444565b005b34801561018d57600080fd5b506101ba600480360360208110156101a457600080fd5b8101908080359060200190929190505050610599565b604051808273ffffffffffffffffffffffffffffffffffffffff1673ffffffffffffffffffffffffffffffffffffffff16815260200191505060405180910390f35b34801561020857600080fd5b506102116105cc565b6040518082815260200191505060405180910390f35b34801561023357600080fd5b506102766004803603602081101561024a57600080fd5b81019080803573ffffffffffffffffffffffffffffffffffffffff1690602001909291905050506105d2565b60405180848152602001838152602001828152602001935050505060405180910390f35b3480156102a657600080fd5b506102e9600480360360208110156102bd57600080fd5b81019080803573ffffffffffffffffffffffffffffffffffffffff1690602001909291905050506105fc565b60405180848152602001838152602001828152602001935050505060405180910390f35b60025481565b6000809054906101000a900473ffffffffffffffffffffffffffffffffffffffff1681565b6000809054906101000a900473ffffffffffffffffffffffffffffffffffffffff1673ffffffffffffffffffffffffffffffffffffffff163373ffffffffffffffffffffffffffffffffffffffff16146103fa576040517f08c379a00000000000000000000000000000000000000000000000000000000081526004018080602001828103825260168152602001807f596f75277265206e6f742074686520636f6d6d6973680000000000000000000081525060200191505060405180910390fd5b8073ffffffffffffffffffffffffffffffffffffffff166108fc479081150290604051600060405180830381858888f19350505050158015610440573d6000803e3d6000fd5b5050565b6002543410156104bc576040517f08c379a000000000000000000000000000000000000000000000000000000000815260040180806020018281038252600e8152602001807f4e6f7420656e6f7567682057656900000000000000000000000000000000000081525060200191505060405180910390fd5b6104c46106d7565b60405180606001604052808381526020013481526020016000815250905080600360003373ffffffffffffffffffffffffffffffffffffffff1673ffffffffffffffffffffffffffffffffffffffff168152602001908152602001600020600082015181600001556020820151816001015560408201518160020155905050336004600084815260200190815260200160002060006101000a81548173ffffffffffffffffffffffffffffffffffffffff021916908373ffffffffffffffffffffffffffffffffffffffff1602179055505050565b60046020528060005260406000206000915054906101000a900473ffffffffffffffffffffffffffffffffffffffff1681565b60015481565b60036020528060005260406000206000915090508060000154908060010154908060020154905083565b6000806000600360008573ffffffffffffffffffffffffffffffffffffffff1673ffffffffffffffffffffffffffffffffffffffff16815260200190815260200160002060000154600360008673ffffffffffffffffffffffffffffffffffffffff1673ffffffffffffffffffffffffffffffffffffffff16815260200190815260200160002060010154600360008773ffffffffffffffffffffffffffffffffffffffff1673ffffffffffffffffffffffffffffffffffffffff168152602001908152602001600020600201549250925092509193909250565b6040518060600160405280600081526020016000815260200160008152509056fea2646970667358221220a23dcd02ad3d59bc9417d0f2f972f6cc7a908fbd2df6b2b41910e3ac9916bd4964736f6c63430006060033",
  "immutableReferences": {},
  "source": "pragma solidity 0.6.6;\n\nimport \"@openzeppelin/contracts/math/SafeMath.sol\";\n// import \"@openzeppelin/contracts/access/Ownable.sol\";\n\ncontract League {\n    \n    using SafeMath for uint256;\n    \n    struct Team {\n        uint256 teamId;\n        uint256 amountPaidInWei;\n        uint256 amountWonInWei;\n    }\n    \n    address public commish;\n    uint256 public yahooLeagueId;\n    uint256 public minBuyInWei;\n\n    mapping(address => Team) public teams;\n    mapping(uint256 => address) public teamAddresses;\n    \n    constructor(\n        address _owner,  \n        uint256 _yahooLeagueId, \n        uint256 _minBuyInWei\n    ) public {\n        commish = _owner;\n        yahooLeagueId = _yahooLeagueId;\n        minBuyInWei = _minBuyInWei;\n    }\n\n    modifier onlyCommish() {\n        require(msg.sender == commish, \"You're not the commish\");\n        _;\n    }\n    \n    function addTeam(uint256 _teamId) payable public {\n        require(msg.value >= minBuyInWei, \"Not enough Wei\");\n        \n        Team memory team = Team({\n            teamId:_teamId, \n            amountPaidInWei: msg.value, \n            amountWonInWei: 0\n        });\n\n        teams[msg.sender] = team;\n        \n        // or should it be by yahoo id, so we can pay easier...\n        teamAddresses[_teamId] = msg.sender;\n    }\n\n    function returnTeam(address _team) public view returns(uint256, uint256, uint256) {\n        return (teams[_team].teamId, teams[_team].amountPaidInWei, teams[_team].amountWonInWei);\n    }\n    \n    // function getAllTeams() public view {\n    \n    // }\n    \n    function withdrawAllMoney(address payable _to) public onlyCommish {\n        _to.transfer(address(this).balance); \n    }\n\n    // receive() external payable {\n    //     addTeam();\n    // }\n    \n    // fallback () external {\n    \n    // }\n}\n\n\n   \n\n",
  "sourcePath": "/Users/mattwalker/eth/commish-truffle/contracts/League.sol",
  "compiler": {
    "name": "solc",
    "version": "0.6.6+commit.6c089d02.Emscripten.clang"
  },
  "schemaVersion": "3.1.0",
  "updatedAt": "2020-05-18T22:04:42.566Z",
  "devdoc": {
    "methods": {}
  },
  "userdoc": {
    "methods": {}
  }
}