{
  "contractName": "SeasonLeague",
  "abi": [
    {
      "inputs": [
        {
          "internalType": "address",
          "name": "_commish",
          "type": "address"
        },
        {
          "internalType": "uint256",
          "name": "_yahooLeagueId",
          "type": "uint256"
        },
        {
          "internalType": "uint256",
          "name": "_minBuyInWei",
          "type": "uint256"
        },
        {
          "internalType": "uint256",
          "name": "_maxTeams",
          "type": "uint256"
        }
      ],
      "stateMutability": "nonpayable",
      "type": "constructor"
    },
    {
      "anonymous": false,
      "inputs": [
        {
          "indexed": false,
          "internalType": "uint256",
          "name": "teamId",
          "type": "uint256"
        },
        {
          "indexed": false,
          "internalType": "uint256",
          "name": "amountWonInWei",
          "type": "uint256"
        },
        {
          "indexed": false,
          "internalType": "uint256",
          "name": "amountPaidInWei",
          "type": "uint256"
        }
      ],
      "name": "TeamInfo",
      "type": "event"
    },
    {
      "inputs": [
        {
          "internalType": "uint256",
          "name": "_teamId",
          "type": "uint256"
        }
      ],
      "name": "addTeam",
      "outputs": [],
      "stateMutability": "payable",
      "type": "function"
    },
    {
      "inputs": [
        {
          "internalType": "uint256",
          "name": "",
          "type": "uint256"
        }
      ],
      "name": "awards",
      "outputs": [
        {
          "internalType": "uint256",
          "name": "percent",
          "type": "uint256"
        }
      ],
      "stateMutability": "view",
      "type": "function"
    },
    {
      "inputs": [
        {
          "internalType": "uint256",
          "name": "_total",
          "type": "uint256"
        },
        {
          "internalType": "uint256",
          "name": "_percent",
          "type": "uint256"
        }
      ],
      "name": "calculatePercentage",
      "outputs": [
        {
          "internalType": "uint256",
          "name": "",
          "type": "uint256"
        }
      ],
      "stateMutability": "pure",
      "type": "function"
    },
    {
      "inputs": [],
      "name": "commish",
      "outputs": [
        {
          "internalType": "address",
          "name": "",
          "type": "address"
        }
      ],
      "stateMutability": "view",
      "type": "function"
    },
    {
      "inputs": [],
      "name": "currentTeams",
      "outputs": [
        {
          "internalType": "uint256",
          "name": "",
          "type": "uint256"
        }
      ],
      "stateMutability": "view",
      "type": "function"
    },
    {
      "inputs": [],
      "name": "getAllTeams",
      "outputs": [],
      "stateMutability": "nonpayable",
      "type": "function"
    },
    {
      "inputs": [],
      "name": "isSeasonDone",
      "outputs": [
        {
          "internalType": "bool",
          "name": "",
          "type": "bool"
        }
      ],
      "stateMutability": "view",
      "type": "function"
    },
    {
      "inputs": [],
      "name": "maxTeams",
      "outputs": [
        {
          "internalType": "uint256",
          "name": "",
          "type": "uint256"
        }
      ],
      "stateMutability": "view",
      "type": "function"
    },
    {
      "inputs": [],
      "name": "minBuyInWei",
      "outputs": [
        {
          "internalType": "uint256",
          "name": "",
          "type": "uint256"
        }
      ],
      "stateMutability": "view",
      "type": "function"
    },
    {
      "inputs": [],
      "name": "numAwards",
      "outputs": [
        {
          "internalType": "uint256",
          "name": "",
          "type": "uint256"
        }
      ],
      "stateMutability": "view",
      "type": "function"
    },
    {
      "inputs": [
        {
          "internalType": "uint256",
          "name": "",
          "type": "uint256"
        }
      ],
      "name": "teamIds",
      "outputs": [
        {
          "internalType": "uint256",
          "name": "",
          "type": "uint256"
        }
      ],
      "stateMutability": "view",
      "type": "function"
    },
    {
      "inputs": [
        {
          "internalType": "uint256",
          "name": "",
          "type": "uint256"
        }
      ],
      "name": "teams",
      "outputs": [
        {
          "internalType": "address payable",
          "name": "payoutAddress",
          "type": "address"
        },
        {
          "internalType": "uint256",
          "name": "amountWonInWei",
          "type": "uint256"
        },
        {
          "internalType": "uint256",
          "name": "amountPaidInWei",
          "type": "uint256"
        }
      ],
      "stateMutability": "view",
      "type": "function"
    },
    {
      "inputs": [
        {
          "internalType": "address payable",
          "name": "_to",
          "type": "address"
        }
      ],
      "name": "withdrawAllMoney",
      "outputs": [],
      "stateMutability": "nonpayable",
      "type": "function"
    },
    {
      "inputs": [],
      "name": "yahooLeagueId",
      "outputs": [
        {
          "internalType": "uint256",
          "name": "",
          "type": "uint256"
        }
      ],
      "stateMutability": "view",
      "type": "function"
    },
    {
      "inputs": [
        {
          "internalType": "uint256[]",
          "name": "_percents",
          "type": "uint256[]"
        }
      ],
      "name": "addSeasonDetails",
      "outputs": [],
      "stateMutability": "nonpayable",
      "type": "function"
    },
    {
      "inputs": [
        {
          "internalType": "uint256[]",
          "name": "_winners",
          "type": "uint256[]"
        }
      ],
      "name": "payOutSeason",
      "outputs": [],
      "stateMutability": "nonpayable",
      "type": "function"
    }
  ],
  "bytecode": "0x608060405260006009556000600a60006101000a81548160ff02191690831515021790555034801561003057600080fd5b506040516117023803806117028339818101604052608081101561005357600080fd5b81019080805190602001909291908051906020019092919080519060200190929190805190602001909291905050508383838383600560006101000a81548173ffffffffffffffffffffffffffffffffffffffff021916908373ffffffffffffffffffffffffffffffffffffffff160217905550826006819055508160078190555033600460006101000a81548173ffffffffffffffffffffffffffffffffffffffff021916908373ffffffffffffffffffffffffffffffffffffffff16021790555080600181905550600060028190555050505050505050506115c68061013c6000396000f3fe6080604052600436106100f35760003560e01c80634db0ccf41161008a578063ab9ad1d511610059578063ab9ad1d514610487578063ecd2be5b146104b2578063edb83e6b146104e1578063fc5a5b63146105a6576100f3565b80634db0ccf41461031d578063580b6680146103e257806372556ffc1461040d57806388cbd00014610438576100f3565b80632133e3b9116100c65780632133e3b9146101f9578063224404d31461025257806322ac35bc1461027d5780633ed2b77a14610294576100f3565b8063034b9c34146100f857806304af1a82146101235780630adec93c1461017a57806311d199d1146101cb575b600080fd5b34801561010457600080fd5b5061010d6105f5565b6040518082815260200191505060405180910390f35b34801561012f57600080fd5b506101386105fb565b604051808273ffffffffffffffffffffffffffffffffffffffff1673ffffffffffffffffffffffffffffffffffffffff16815260200191505060405180910390f35b34801561018657600080fd5b506101c96004803603602081101561019d57600080fd5b81019080803573ffffffffffffffffffffffffffffffffffffffff169060200190929190505050610621565b005b6101f7600480360360208110156101e157600080fd5b810190808035906020019092919050505061072e565b005b34801561020557600080fd5b5061023c6004803603604081101561021c57600080fd5b8101908080359060200190929190803590602001909291905050506109bf565b6040518082815260200191505060405180910390f35b34801561025e57600080fd5b506102676109fb565b6040518082815260200191505060405180910390f35b34801561028957600080fd5b50610292610a01565b005b3480156102a057600080fd5b506102cd600480360360208110156102b757600080fd5b8101908080359060200190929190505050610ad7565b604051808473ffffffffffffffffffffffffffffffffffffffff1673ffffffffffffffffffffffffffffffffffffffff168152602001838152602001828152602001935050505060405180910390f35b34801561032957600080fd5b506103e06004803603602081101561034057600080fd5b810190808035906020019064010000000081111561035d57600080fd5b82018360208201111561036f57600080fd5b8035906020019184602083028401116401000000008311171561039157600080fd5b919080806020026020016040519081016040528093929190818152602001838360200280828437600081840152601f19601f820116905080830192505050505050509192919290505050610b21565b005b3480156103ee57600080fd5b506103f76110fb565b6040518082815260200191505060405180910390f35b34801561041957600080fd5b50610422611101565b6040518082815260200191505060405180910390f35b34801561044457600080fd5b506104716004803603602081101561045b57600080fd5b8101908080359060200190929190505050611107565b6040518082815260200191505060405180910390f35b34801561049357600080fd5b5061049c611128565b6040518082815260200191505060405180910390f35b3480156104be57600080fd5b506104c761112e565b604051808215151515815260200191505060405180910390f35b3480156104ed57600080fd5b506105a46004803603602081101561050457600080fd5b810190808035906020019064010000000081111561052157600080fd5b82018360208201111561053357600080fd5b8035906020019184602083028401116401000000008311171561055557600080fd5b919080806020026020016040519081016040528093929190818152602001838360200280828437600081840152601f19601f820116905080830192505050505050509192919290505050611141565b005b3480156105b257600080fd5b506105df600480360360208110156105c957600080fd5b81019080803590602001909291905050506112b0565b6040518082815260200191505060405180910390f35b60075481565b600560009054906101000a900473ffffffffffffffffffffffffffffffffffffffff1681565b600560009054906101000a900473ffffffffffffffffffffffffffffffffffffffff1673ffffffffffffffffffffffffffffffffffffffff163373ffffffffffffffffffffffffffffffffffffffff16146106e4576040517f08c379a000000000000000000000000000000000000000000000000000000000815260040180806020018281038252600f8152602001807f4e6f742074686520636f6d6d697368000000000000000000000000000000000081525060200191505060405180910390fd5b8073ffffffffffffffffffffffffffffffffffffffff166108fc479081150290604051600060405180830381858888f1935050505015801561072a573d6000803e3d6000fd5b5050565b6007543410156107a6576040517f08c379a000000000000000000000000000000000000000000000000000000000815260040180806020018281038252600e8152602001807f4e6f7420656e6f7567682077656900000000000000000000000000000000000081525060200191505060405180910390fd5b6107e460008083815260200190815260200160002060000160009054906101000a900473ffffffffffffffffffffffffffffffffffffffff166112ce565b15610857576040517f08c379a00000000000000000000000000000000000000000000000000000000081526004018080602001828103825260188152602001807f54686973207573657220616c726561647920657869737473000000000000000081525060200191505060405180910390fd5b600154600380549050106108d3576040517f08c379a00000000000000000000000000000000000000000000000000000000081526004018080602001828103825260168152602001807f4d6178207465616d206c696d697420726561636865640000000000000000000081525060200191505060405180910390fd5b6108db611525565b60405180606001604052803373ffffffffffffffffffffffffffffffffffffffff168152602001600081526020013481525090508060008084815260200190815260200160002060008201518160000160006101000a81548173ffffffffffffffffffffffffffffffffffffffff021916908373ffffffffffffffffffffffffffffffffffffffff160217905550602082015181600101556040820151816002015590505060038290806001815401808255809150506001900390600052602060002001600090919091909150556002600081548092919060010191905055505050565b6000806109d5838561130790919063ffffffff16565b905060006109ee6127108361138d90919063ffffffff16565b9050809250505092915050565b60015481565b60008090505b600254811015610ad4577f3aac7ac869ce4ecbe9cd963e77b7f9353e2c8b3a3db70168f89509f3a7ceeb8260038281548110610a3f57fe5b906000526020600020015460008060038581548110610a5a57fe5b906000526020600020015481526020019081526020016000206001015460008060038681548110610a8757fe5b906000526020600020015481526020019081526020016000206002015460405180848152602001838152602001828152602001935050505060405180910390a18080600101915050610a07565b50565b60006020528060005260406000206000915090508060000160009054906101000a900473ffffffffffffffffffffffffffffffffffffffff16908060010154908060020154905083565b600560009054906101000a900473ffffffffffffffffffffffffffffffffffffffff1673ffffffffffffffffffffffffffffffffffffffff163373ffffffffffffffffffffffffffffffffffffffff1614610be4576040517f08c379a000000000000000000000000000000000000000000000000000000000815260040180806020018281038252600f8152602001807f4e6f742074686520636f6d6d697368000000000000000000000000000000000081525060200191505060405180910390fd5b6004815114610c5b576040517f08c379a00000000000000000000000000000000000000000000000000000000081526004018080602001828103825260168152602001807f4d757374206861766520666f75722077696e6e6572730000000000000000000081525060200191505060405180910390fd5b60004790506000610c83826008600060018152602001908152602001600020600001546109bf565b90506000610ca8836008600060028152602001908152602001600020600001546109bf565b90506000610ccd846008600060038152602001908152602001600020600001546109bf565b90506000610cf2856008600060048152602001908152602001600020600001546109bf565b9050610d308460008089600081518110610d0857fe5b60200260200101518152602001908152602001600020600101546113d790919063ffffffff16565b60008088600081518110610d4057fe5b6020026020010151815260200190815260200160002060010181905550610d998360008089600181518110610d7157fe5b60200260200101518152602001908152602001600020600101546113d790919063ffffffff16565b60008088600181518110610da957fe5b6020026020010151815260200190815260200160002060010181905550610e028260008089600281518110610dda57fe5b60200260200101518152602001908152602001600020600101546113d790919063ffffffff16565b60008088600281518110610e1257fe5b6020026020010151815260200190815260200160002060010181905550610e6b8160008089600381518110610e4357fe5b60200260200101518152602001908152602001600020600101546113d790919063ffffffff16565b60008088600381518110610e7b57fe5b60200260200101518152602001908152602001600020600101819055506001600a60006101000a81548160ff02191690831515021790555060008087600081518110610ec357fe5b6020026020010151815260200190815260200160002060000160009054906101000a900473ffffffffffffffffffffffffffffffffffffffff1673ffffffffffffffffffffffffffffffffffffffff166108fc859081150290604051600060405180830381858888f19350505050158015610f42573d6000803e3d6000fd5b5060008087600181518110610f5357fe5b6020026020010151815260200190815260200160002060000160009054906101000a900473ffffffffffffffffffffffffffffffffffffffff1673ffffffffffffffffffffffffffffffffffffffff166108fc849081150290604051600060405180830381858888f19350505050158015610fd2573d6000803e3d6000fd5b5060008087600281518110610fe357fe5b6020026020010151815260200190815260200160002060000160009054906101000a900473ffffffffffffffffffffffffffffffffffffffff1673ffffffffffffffffffffffffffffffffffffffff166108fc839081150290604051600060405180830381858888f19350505050158015611062573d6000803e3d6000fd5b506000808760038151811061107357fe5b6020026020010151815260200190815260200160002060000160009054906101000a900473ffffffffffffffffffffffffffffffffffffffff1673ffffffffffffffffffffffffffffffffffffffff166108fc829081150290604051600060405180830381858888f193505050501580156110f2573d6000803e3d6000fd5b50505050505050565b60025481565b60095481565b6003818154811061111457fe5b906000526020600020016000915090505481565b60065481565b600a60009054906101000a900460ff1681565b600460009054906101000a900473ffffffffffffffffffffffffffffffffffffffff1673ffffffffffffffffffffffffffffffffffffffff163373ffffffffffffffffffffffffffffffffffffffff1614611204576040517f08c379a00000000000000000000000000000000000000000000000000000000081526004018080602001828103825260148152602001807f4e6f7420666163746f727920636f6e747261637400000000000000000000000081525060200191505060405180910390fd5b60008090505b81518160ff1610156112ac5761121e61155c565b6040518060200160405280848460ff168151811061123857fe5b6020026020010151815250905080600860006001850160ff168152602001908152602001600020600082015181600001559050506000838360ff168151811061127d57fe5b6020026020010151111561129e576009600081548092919060010191905055505b81806001019250505061120a565b5050565b60086020528060005260406000206000915090508060000154905081565b60008073ffffffffffffffffffffffffffffffffffffffff168273ffffffffffffffffffffffffffffffffffffffff1614159050919050565b60008083141561131a5760009050611387565b600082840290508284828161132b57fe5b0414611382576040517f08c379a00000000000000000000000000000000000000000000000000000000081526004018080602001828103825260218152602001806115706021913960400191505060405180910390fd5b809150505b92915050565b60006113cf83836040518060400160405280601a81526020017f536166654d6174683a206469766973696f6e206279207a65726f00000000000081525061145f565b905092915050565b600080828401905083811015611455576040517f08c379a000000000000000000000000000000000000000000000000000000000815260040180806020018281038252601b8152602001807f536166654d6174683a206164646974696f6e206f766572666c6f77000000000081525060200191505060405180910390fd5b8091505092915050565b6000808311829061150b576040517f08c379a00000000000000000000000000000000000000000000000000000000081526004018080602001828103825283818151815260200191508051906020019080838360005b838110156114d05780820151818401526020810190506114b5565b50505050905090810190601f1680156114fd5780820380516001836020036101000a031916815260200191505b509250505060405180910390fd5b50600083858161151757fe5b049050809150509392505050565b6040518060600160405280600073ffffffffffffffffffffffffffffffffffffffff16815260200160008152602001600081525090565b604051806020016040528060008152509056fe536166654d6174683a206d756c7469706c69636174696f6e206f766572666c6f77a26469706673582212206284897229203ccd3b22786014b6dbd7ef2ef2c0f7a864f72fa8703fa74965c264736f6c63430006060033",
  "immutableReferences": {},
  "source": "pragma solidity 0.6.6;\n\nimport \"./BaseLeague.sol\";\n\ncontract SeasonLeague is BaseLeague {\n    struct Award {\n        uint256 percent;\n    }\n\n    mapping(uint256 => Award) public awards;\n    uint256 public numAwards = 0;\n    bool public isSeasonDone = false;\n\n    constructor(\n        address _commish,\n        uint256 _yahooLeagueId,\n        uint256 _minBuyInWei,\n        uint256 _maxTeams\n    ) public BaseLeague(_commish, _yahooLeagueId, _minBuyInWei, _maxTeams) {}\n\n    function addSeasonDetails(uint256[] memory _percents)\n        public\n        isFactoryContract\n    {\n        uint8 i = 0;\n        // the loop is cheaper on gas...\n        while (i < _percents.length) {\n            Award memory award = Award({percent: _percents[i]});\n            awards[i + 1] = award;\n            if (_percents[i] > 0) {\n                numAwards++;\n            }\n            i++;\n        }\n    }\n\n    function payOutSeason(uint256[] memory _winners) public onlyCommish {\n        // checks\n        require(_winners.length == 4, \"Must have four winners\");\n        // require valid payout address?\n\n        // require(\n        //     isValidAddress(teams[_winners[0]].payoutAddress),\n        //     \"First place is not a valid user\"\n        // );\n\n        // effects\n        uint256 amountToPay = address(this).balance;\n        uint256 firstAmount = calculatePercentage(\n            amountToPay,\n            awards[1].percent\n        );\n        uint256 secondAmount = calculatePercentage(\n            amountToPay,\n            awards[2].percent\n        );\n        uint256 thirdAmount = calculatePercentage(\n            amountToPay,\n            awards[3].percent\n        );\n        uint256 fourthAmount = calculatePercentage(\n            amountToPay,\n            awards[4].percent\n        );\n\n        teams[_winners[0]].amountWonInWei = teams[_winners[0]]\n            .amountWonInWei\n            .add(firstAmount);\n\n        teams[_winners[1]].amountWonInWei = teams[_winners[1]]\n            .amountWonInWei\n            .add(secondAmount);\n\n        teams[_winners[2]].amountWonInWei = teams[_winners[2]]\n            .amountWonInWei\n            .add(thirdAmount);\n\n        teams[_winners[3]].amountWonInWei = teams[_winners[3]]\n            .amountWonInWei\n            .add(fourthAmount);\n\n        isSeasonDone = true;\n\n        // interacts\n        teams[_winners[0]].payoutAddress.transfer(firstAmount);\n        teams[_winners[1]].payoutAddress.transfer(secondAmount);\n        teams[_winners[2]].payoutAddress.transfer(thirdAmount);\n        teams[_winners[3]].payoutAddress.transfer(fourthAmount);\n    }\n}\n",
  "sourcePath": "/Users/mattwalker/eth/commish-contracts/contracts/SeasonLeague.sol",
  "compiler": {
    "name": "solc",
    "version": "0.6.6+commit.6c089d02.Emscripten.clang"
  },
  "schemaVersion": "3.1.0",
  "updatedAt": "2020-07-17T15:48:49.032Z",
  "devdoc": {
    "methods": {}
  },
  "userdoc": {
    "methods": {}
  }
}