{
  "contractName": "WeeklyLeague",
  "abi": [
    {
      "inputs": [
        {
          "internalType": "address",
          "name": "_commish",
          "type": "address"
        },
        {
          "internalType": "uint256",
          "name": "_yahooLeagueId",
          "type": "uint256"
        },
        {
          "internalType": "uint256",
          "name": "_minBuyInWei",
          "type": "uint256"
        },
        {
          "internalType": "uint256",
          "name": "_maxTeams",
          "type": "uint256"
        }
      ],
      "stateMutability": "nonpayable",
      "type": "constructor"
    },
    {
      "anonymous": false,
      "inputs": [
        {
          "indexed": false,
          "internalType": "uint256",
          "name": "teamId",
          "type": "uint256"
        },
        {
          "indexed": false,
          "internalType": "uint256",
          "name": "amountWonInWei",
          "type": "uint256"
        },
        {
          "indexed": false,
          "internalType": "uint256",
          "name": "amountPaidInWei",
          "type": "uint256"
        }
      ],
      "name": "TeamInfo",
      "type": "event"
    },
    {
      "inputs": [
        {
          "internalType": "uint256",
          "name": "_teamId",
          "type": "uint256"
        }
      ],
      "name": "addTeam",
      "outputs": [],
      "stateMutability": "payable",
      "type": "function"
    },
    {
      "inputs": [
        {
          "internalType": "uint256",
          "name": "_total",
          "type": "uint256"
        },
        {
          "internalType": "uint256",
          "name": "_percent",
          "type": "uint256"
        }
      ],
      "name": "calculatePercentage",
      "outputs": [
        {
          "internalType": "uint256",
          "name": "",
          "type": "uint256"
        }
      ],
      "stateMutability": "pure",
      "type": "function"
    },
    {
      "inputs": [],
      "name": "commish",
      "outputs": [
        {
          "internalType": "address",
          "name": "",
          "type": "address"
        }
      ],
      "stateMutability": "view",
      "type": "function"
    },
    {
      "inputs": [],
      "name": "currentTeams",
      "outputs": [
        {
          "internalType": "uint256",
          "name": "",
          "type": "uint256"
        }
      ],
      "stateMutability": "view",
      "type": "function"
    },
    {
      "inputs": [],
      "name": "currentWeek",
      "outputs": [
        {
          "internalType": "uint256",
          "name": "",
          "type": "uint256"
        }
      ],
      "stateMutability": "view",
      "type": "function"
    },
    {
      "inputs": [],
      "name": "getAllTeams",
      "outputs": [],
      "stateMutability": "nonpayable",
      "type": "function"
    },
    {
      "inputs": [],
      "name": "maxTeams",
      "outputs": [
        {
          "internalType": "uint256",
          "name": "",
          "type": "uint256"
        }
      ],
      "stateMutability": "view",
      "type": "function"
    },
    {
      "inputs": [],
      "name": "minBuyInWei",
      "outputs": [
        {
          "internalType": "uint256",
          "name": "",
          "type": "uint256"
        }
      ],
      "stateMutability": "view",
      "type": "function"
    },
    {
      "inputs": [
        {
          "internalType": "uint256",
          "name": "",
          "type": "uint256"
        }
      ],
      "name": "teamIds",
      "outputs": [
        {
          "internalType": "uint256",
          "name": "",
          "type": "uint256"
        }
      ],
      "stateMutability": "view",
      "type": "function"
    },
    {
      "inputs": [
        {
          "internalType": "uint256",
          "name": "",
          "type": "uint256"
        }
      ],
      "name": "teams",
      "outputs": [
        {
          "internalType": "address payable",
          "name": "payoutAddress",
          "type": "address"
        },
        {
          "internalType": "uint256",
          "name": "amountWonInWei",
          "type": "uint256"
        },
        {
          "internalType": "uint256",
          "name": "amountPaidInWei",
          "type": "uint256"
        }
      ],
      "stateMutability": "view",
      "type": "function"
    },
    {
      "inputs": [],
      "name": "totalWeeks",
      "outputs": [
        {
          "internalType": "uint256",
          "name": "",
          "type": "uint256"
        }
      ],
      "stateMutability": "view",
      "type": "function"
    },
    {
      "inputs": [
        {
          "internalType": "address payable",
          "name": "_to",
          "type": "address"
        }
      ],
      "name": "withdrawAllMoney",
      "outputs": [],
      "stateMutability": "nonpayable",
      "type": "function"
    },
    {
      "inputs": [],
      "name": "yahooLeagueId",
      "outputs": [
        {
          "internalType": "uint256",
          "name": "",
          "type": "uint256"
        }
      ],
      "stateMutability": "view",
      "type": "function"
    },
    {
      "inputs": [
        {
          "internalType": "uint256",
          "name": "_totalWeeks",
          "type": "uint256"
        }
      ],
      "name": "addWeeklyDetails",
      "outputs": [],
      "stateMutability": "nonpayable",
      "type": "function"
    },
    {
      "inputs": [
        {
          "internalType": "uint256",
          "name": "_totalWeeks",
          "type": "uint256"
        }
      ],
      "name": "editTotalWeeks",
      "outputs": [],
      "stateMutability": "nonpayable",
      "type": "function"
    },
    {
      "inputs": [
        {
          "internalType": "uint256",
          "name": "_winningTeamId",
          "type": "uint256"
        }
      ],
      "name": "payOutWeek",
      "outputs": [],
      "stateMutability": "nonpayable",
      "type": "function"
    }
  ],
  "bytecode": "0x608060405234801561001057600080fd5b5060405161150d38038061150d8339818101604052608081101561003357600080fd5b81019080805190602001909291908051906020019092919080519060200190929190805190602001909291905050508383838383600560006101000a81548173ffffffffffffffffffffffffffffffffffffffff021916908373ffffffffffffffffffffffffffffffffffffffff160217905550826006819055508160078190555033600460006101000a81548173ffffffffffffffffffffffffffffffffffffffff021916908373ffffffffffffffffffffffffffffffffffffffff16021790555080600181905550600060028190555050505050505050506113f18061011c6000396000f3fe6080604052600436106100f35760003560e01c8063224404d31161008a578063580b668011610059578063580b6680146103e957806388cbd00014610414578063ab9ad1d514610463578063ee8940fd1461048e576100f3565b8063224404d3146102e357806322ac35bc1461030e5780633ed2b77a146103255780633feda757146103ae576100f3565b80630be08114116100c65780630be08114146101f65780630f100cb71461022157806311d199d11461025c5780632133e3b91461028a576100f3565b8063034b9c34146100f857806304af1a821461012357806306575c891461017a5780630adec93c146101a5575b600080fd5b34801561010457600080fd5b5061010d6104c9565b6040518082815260200191505060405180910390f35b34801561012f57600080fd5b506101386104cf565b604051808273ffffffffffffffffffffffffffffffffffffffff1673ffffffffffffffffffffffffffffffffffffffff16815260200191505060405180910390f35b34801561018657600080fd5b5061018f6104f5565b6040518082815260200191505060405180910390f35b3480156101b157600080fd5b506101f4600480360360208110156101c857600080fd5b81019080803573ffffffffffffffffffffffffffffffffffffffff1690602001909291905050506104fb565b005b34801561020257600080fd5b5061020b610608565b6040518082815260200191505060405180910390f35b34801561022d57600080fd5b5061025a6004803603602081101561024457600080fd5b810190808035906020019092919050505061060e565b005b6102886004803603602081101561027257600080fd5b81019080803590602001909291905050506107ea565b005b34801561029657600080fd5b506102cd600480360360408110156102ad57600080fd5b810190808035906020019092919080359060200190929190505050610a7b565b6040518082815260200191505060405180910390f35b3480156102ef57600080fd5b506102f8610ab7565b6040518082815260200191505060405180910390f35b34801561031a57600080fd5b50610323610abd565b005b34801561033157600080fd5b5061035e6004803603602081101561034857600080fd5b8101908080359060200190929190505050610b93565b604051808473ffffffffffffffffffffffffffffffffffffffff1673ffffffffffffffffffffffffffffffffffffffff168152602001838152602001828152602001935050505060405180910390f35b3480156103ba57600080fd5b506103e7600480360360208110156103d157600080fd5b8101908080359060200190929190505050610bdd565b005b3480156103f557600080fd5b506103fe610e7f565b6040518082815260200191505060405180910390f35b34801561042057600080fd5b5061044d6004803603602081101561043757600080fd5b8101908080359060200190929190505050610e85565b6040518082815260200191505060405180910390f35b34801561046f57600080fd5b50610478610ea6565b6040518082815260200191505060405180910390f35b34801561049a57600080fd5b506104c7600480360360208110156104b157600080fd5b8101908080359060200190929190505050610eac565b005b60075481565b600560009054906101000a900473ffffffffffffffffffffffffffffffffffffffff1681565b60095481565b600560009054906101000a900473ffffffffffffffffffffffffffffffffffffffff1673ffffffffffffffffffffffffffffffffffffffff163373ffffffffffffffffffffffffffffffffffffffff16146105be576040517f08c379a000000000000000000000000000000000000000000000000000000000815260040180806020018281038252600f8152602001807f4e6f742074686520636f6d6d697368000000000000000000000000000000000081525060200191505060405180910390fd5b8073ffffffffffffffffffffffffffffffffffffffff166108fc479081150290604051600060405180830381858888f19350505050158015610604573d6000803e3d6000fd5b5050565b60085481565b600560009054906101000a900473ffffffffffffffffffffffffffffffffffffffff1673ffffffffffffffffffffffffffffffffffffffff163373ffffffffffffffffffffffffffffffffffffffff16146106d1576040517f08c379a000000000000000000000000000000000000000000000000000000000815260040180806020018281038252600f8152602001807f4e6f742074686520636f6d6d697368000000000000000000000000000000000081525060200191505060405180910390fd5b60095481101561072c576040517f08c379a000000000000000000000000000000000000000000000000000000000815260040180806020018281038252602a815260200180611349602a913960400191505060405180910390fd5b6011811115610786576040517f08c379a00000000000000000000000000000000000000000000000000000000081526004018080602001828103825260288152602001806113946028913960400191505060405180910390fd5b60018110156107e0576040517f08c379a000000000000000000000000000000000000000000000000000000000815260040180806020018281038252602f81526020018061131a602f913960400191505060405180910390fd5b8060088190555050565b600754341015610862576040517f08c379a000000000000000000000000000000000000000000000000000000000815260040180806020018281038252600e8152602001807f4e6f7420656e6f7567682077656900000000000000000000000000000000000081525060200191505060405180910390fd5b6108a060008083815260200190815260200160002060000160009054906101000a900473ffffffffffffffffffffffffffffffffffffffff16610f81565b15610913576040517f08c379a00000000000000000000000000000000000000000000000000000000081526004018080602001828103825260188152602001807f54686973207573657220616c726561647920657869737473000000000000000081525060200191505060405180910390fd5b6001546003805490501061098f576040517f08c379a00000000000000000000000000000000000000000000000000000000081526004018080602001828103825260168152602001807f4d6178207465616d206c696d697420726561636865640000000000000000000081525060200191505060405180910390fd5b6109976112e2565b60405180606001604052803373ffffffffffffffffffffffffffffffffffffffff168152602001600081526020013481525090508060008084815260200190815260200160002060008201518160000160006101000a81548173ffffffffffffffffffffffffffffffffffffffff021916908373ffffffffffffffffffffffffffffffffffffffff160217905550602082015181600101556040820151816002015590505060038290806001815401808255809150506001900390600052602060002001600090919091909150556002600081548092919060010191905055505050565b600080610a918385610fba90919063ffffffff16565b90506000610aaa6127108361104090919063ffffffff16565b9050809250505092915050565b60015481565b60008090505b600254811015610b90577f3aac7ac869ce4ecbe9cd963e77b7f9353e2c8b3a3db70168f89509f3a7ceeb8260038281548110610afb57fe5b906000526020600020015460008060038581548110610b1657fe5b906000526020600020015481526020019081526020016000206001015460008060038681548110610b4357fe5b906000526020600020015481526020019081526020016000206002015460405180848152602001838152602001828152602001935050505060405180910390a18080600101915050610ac3565b50565b60006020528060005260406000206000915090508060000160009054906101000a900473ffffffffffffffffffffffffffffffffffffffff16908060010154908060020154905083565b600560009054906101000a900473ffffffffffffffffffffffffffffffffffffffff1673ffffffffffffffffffffffffffffffffffffffff163373ffffffffffffffffffffffffffffffffffffffff1614610ca0576040517f08c379a000000000000000000000000000000000000000000000000000000000815260040180806020018281038252600f8152602001807f4e6f742074686520636f6d6d697368000000000000000000000000000000000081525060200191505060405180910390fd5b610cde60008083815260200190815260200160002060000160009054906101000a900473ffffffffffffffffffffffffffffffffffffffff16610f81565b610d50576040517f08c379a00000000000000000000000000000000000000000000000000000000081526004018080602001828103825260108152602001807f4e6f7420612076616c696420757365720000000000000000000000000000000081525060200191505060405180910390fd5b6000610d68600160085461108a90919063ffffffff16565b90506000610d816009548361111290919063ffffffff16565b90506000610d98824761104090919063ffffffff16565b90506000610dc4826000808881526020019081526020016000206001015461108a90919063ffffffff16565b90508060008087815260200190815260200160002060010181905550610df6600160095461108a90919063ffffffff16565b60098190555060008086815260200190815260200160002060000160009054906101000a900473ffffffffffffffffffffffffffffffffffffffff1673ffffffffffffffffffffffffffffffffffffffff166108fc839081150290604051600060405180830381858888f19350505050158015610e77573d6000803e3d6000fd5b505050505050565b60025481565b60038181548110610e9257fe5b906000526020600020016000915090505481565b60065481565b600460009054906101000a900473ffffffffffffffffffffffffffffffffffffffff1673ffffffffffffffffffffffffffffffffffffffff163373ffffffffffffffffffffffffffffffffffffffff1614610f6f576040517f08c379a00000000000000000000000000000000000000000000000000000000081526004018080602001828103825260148152602001807f4e6f7420666163746f727920636f6e747261637400000000000000000000000081525060200191505060405180910390fd5b80600881905550600160098190555050565b60008073ffffffffffffffffffffffffffffffffffffffff168273ffffffffffffffffffffffffffffffffffffffff1614159050919050565b600080831415610fcd576000905061103a565b6000828402905082848281610fde57fe5b0414611035576040517f08c379a00000000000000000000000000000000000000000000000000000000081526004018080602001828103825260218152602001806113736021913960400191505060405180910390fd5b809150505b92915050565b600061108283836040518060400160405280601a81526020017f536166654d6174683a206469766973696f6e206279207a65726f00000000000081525061115c565b905092915050565b600080828401905083811015611108576040517f08c379a000000000000000000000000000000000000000000000000000000000815260040180806020018281038252601b8152602001807f536166654d6174683a206164646974696f6e206f766572666c6f77000000000081525060200191505060405180910390fd5b8091505092915050565b600061115483836040518060400160405280601e81526020017f536166654d6174683a207375627472616374696f6e206f766572666c6f770000815250611222565b905092915050565b60008083118290611208576040517f08c379a00000000000000000000000000000000000000000000000000000000081526004018080602001828103825283818151815260200191508051906020019080838360005b838110156111cd5780820151818401526020810190506111b2565b50505050905090810190601f1680156111fa5780820380516001836020036101000a031916815260200191505b509250505060405180910390fd5b50600083858161121457fe5b049050809150509392505050565b60008383111582906112cf576040517f08c379a00000000000000000000000000000000000000000000000000000000081526004018080602001828103825283818151815260200191508051906020019080838360005b83811015611294578082015181840152602081019050611279565b50505050905090810190601f1680156112c15780820380516001836020036101000a031916815260200191505b509250505060405180910390fd5b5060008385039050809150509392505050565b6040518060600160405280600073ffffffffffffffffffffffffffffffffffffffff1681526020016000815260200160008152509056fe5468657265206973206d6f7265207468616e207a65726f207765656b7320696e20746865204e464c20736561736f6e546f74616c207765656b732063616e74206265206c657373207468616e2063757272656e74207765656b536166654d6174683a206d756c7469706c69636174696f6e206f766572666c6f77546865726520617265206d6178203137207765656b7320696e20746865204e464c20736561736f6ea26469706673582212205fc3158422b180c7d5b3c9b98595bcb0579327fe4e5500d30777bbcdc287421664736f6c63430006060033",
  "immutableReferences": {},
  "source": "pragma solidity 0.6.6;\n\nimport \"./BaseLeague.sol\";\n\nimport \"@openzeppelin/contracts/math/SafeMath.sol\";\n\ncontract WeeklyLeague is BaseLeague {\n    using SafeMath for uint256;\n\n    uint256 public totalWeeks;\n    uint256 public currentWeek;\n\n    constructor(\n        address _commish,\n        uint256 _yahooLeagueId,\n        uint256 _minBuyInWei,\n        uint256 _maxTeams\n    ) public BaseLeague(_commish, _yahooLeagueId, _minBuyInWei, _maxTeams) {}\n\n    // this function will be called by contract factory, so internal?\n    function addWeeklyDetails(uint256 _totalWeeks) public isFactoryContract {\n        totalWeeks = _totalWeeks;\n        currentWeek = 1;\n    }\n\n    function editTotalWeeks(uint256 _totalWeeks) public onlyCommish {\n        require(\n            _totalWeeks >= currentWeek,\n            \"Total weeks cant be less than current week\"\n        );\n        require(_totalWeeks <= 17, \"There are max 17 weeks in the NFL season\");\n        require(\n            _totalWeeks >= 1,\n            \"There is more than zero weeks in the NFL season\"\n        );\n\n        totalWeeks = _totalWeeks;\n    }\n\n    function payOutWeek(uint256 _winningTeamId) public onlyCommish {\n        require(\n            isValidAddress(teams[_winningTeamId].payoutAddress),\n            \"Not a valid user\"\n        );\n        // checks\n\n        // we want to leave enough for the last week...\n        uint256 totalWeeksIncludingLastWeek = totalWeeks.add(1);\n        uint256 weeksLeft = totalWeeksIncludingLastWeek.sub(currentWeek);\n        uint256 amountToPay = address(this).balance.div(weeksLeft);\n\n        // effects\n\n        uint256 newAmountWon = teams[_winningTeamId].amountWonInWei.add(\n            amountToPay\n        );\n\n        teams[_winningTeamId].amountWonInWei = newAmountWon;\n        currentWeek = currentWeek.add(1);\n\n        // interacts\n        teams[_winningTeamId].payoutAddress.transfer(amountToPay);\n    }\n}\n",
  "sourcePath": "/Users/mattwalker/eth/commish-contracts/contracts/WeeklyLeague.sol",
  "compiler": {
    "name": "solc",
    "version": "0.6.6+commit.6c089d02.Emscripten.clang"
  },
  "schemaVersion": "3.1.0",
  "updatedAt": "2020-07-17T15:48:49.036Z",
  "devdoc": {
    "methods": {}
  },
  "userdoc": {
    "methods": {}
  }
}